:020000040800F2
:1000000080070020A101000825320008B92B000854
:10001000D12F000887090008D33A0008000000002B
:10002000000000000000000000000000FF32000897
:10003000C90A000800000000E33200083935000852
:10004000BB010008BB010008BB010008BB010008A0
:10005000BB010008BB010008BB010008BB01000890
:10006000BB010008BB010008BB010008BB01000880
:10007000BB010008BB010008BB010008BB01000870
:10008000BB010008BB010008DD070008BB01000838
:10009000BB010008BB010008BB010008BB01000850
:1000A000BB010008BB010008BB010008BB01000840
:1000B000BB010008BB010008BB010008BB01000830
:1000C000BB010008BB010008BB010008BB01000820
:1000D000BB010008BB010008BB010008BB01000810
:1000E000BB010008BB010008BB010008BB01000800
:1000F000BB010008BB010008BB010008BB010008F0
:10010000BB010008BB010008F1350008BB01000875
:10011000BB010008BB010008BB010008BB010008CF
:10012000190A0008BB010008BB010008BB01000858
:10013000BB010008BB010008BB010008BB010008AF
:10014000BB010008BB010008BB010008BB0100089F
:10015000BB010008BB010008BB010008BB0100088F
:10016000BB010008BB010008BB010008BB0100087F
:10017000BB010008BB010008BB0100080000000033
:10018000BB010008BB010008DFF810D000F05EFAE8
:100190000048004705490008AFF3008080070020B1
:1001A0000648804706480047FEE7FEE7FEE7FEE711
:1001B000FEE7FEE7FEE7FEE7FEE7FEE7E1350008C3
:1001C000890100082DE9F05F0546002092469B4614
:1001D00088460646814640241BE02846414647465D
:1001E000224600F06AF853465A46C01A914110D38D
:1001F00011461846224600F051F82D1A67EB010807
:100200004F4622460120002100F048F817EB000974
:100210004E41201EA4F10104DFDC484631462A4647
:100220004346BDE8F09FD2B201E000F8012B491E21
:10023000FBD270470022F6E710B513460A46044683
:100240001946FFF7F0FF204610BD00F0004230F0E5
:1002500000400AD0C10D01F56071C0F3160042EAFA
:100260000151C20840071143704700200146704702
:1002700030B50B46014600202022012409E021FA76
:1002800002F59D4205D303FA02F5491B04FA02F573
:100290002844151EA2F10102F1DC30BD202A04DB46
:1002A000203A00FA02F1002070479140C2F1200389
:1002B00020FA03F3194390407047202A04DB203AC8
:1002C00021FA02F00021704721FA02F3D040C2F176
:1002D000200291400843194670472DE9FE4F8046A1
:1002E00081EA0300C00F0C46009021F0004123F08A
:1002F0000045B8EB0200A94105D240462146904690
:100300001C460B46024623F00040104347D0270D01
:10031000C7F30A00C3F30A510290401A0190402823
:100320006BDAC3F3130040F4801B0098924620B1AF
:100330000023D2EB030A63EB0B0B01985946C0F183
:1003400040025046FFF7AAFF06460D465046594662
:10035000019A00F08DF910EB08006141002487EA52
:10036000115284EAE7731A4340D0009A62B3019AAB
:10037000012A4FEA075215DC001B61EB02014FF026
:10038000004202EA0752CDE90042001C41F580110B
:1003900032462B4600F08DF903B0BDE8F08F4046A1
:1003A0002146F9E7001B61EB0201001C41F58013B7
:1003B00000185B412018A2F5001747EB030140EA43
:1003C000D570B6196D4111E06D084FEA360645EA61
:1003D000C0754FEA0752001B61EB0201001C41F59A
:1003E000801149084FEA30000019514132462B462E
:1003F00003B0BDE8F04F00F04DB900980122400075
:100400000023D0EB020263EBE073009821464FEA31
:10041000E074B8EB000061EB0401E9E783F000430E
:100420005BE781F0004158E72DE9FE4F81EA0304C4
:1004300004F0004421F0004100944FF0000B23F041
:10044000004350EA01045ED052EA03045BD0C3F3D8
:100450000A54C1F30A552C44A4F2F3340194A0FBCE
:100460000254C1F3130141F48011C3F3130343F4A5
:10047000801301FB024400FB034E840A970A44EAFE
:10048000815447EA8357A4FB076802958D0A05FB50
:1004900007854FEA932C04FB0C542705029D4FEA75
:1004A000065847EA1637B5EB08056EEB070C870EC2
:1004B000920E47EA811742EA8312A7FB0201B6EBCC
:1004C0000B0164EB00042B0D43EA0C335E1844EB84
:1004D0001C50DA465146E7FB0201C5F313044FEA0C
:1004E0000B3343EA14534FEA0432019C43EA0603F8
:1004F000A4F10C040294009CCDE900B400F0D9F8FA
:1005000003B0BDE8F08F00200146F9E72DE9F04D7A
:1005100081EA030404F0004B21F0004514464FF03B
:10052000000A23F0004150EA050220D054EA0102FB
:100530001DD0C5F30A570246C5F31303C1F31300D8
:10054000C1F30A5640F4801543F48013A7EB060864
:10055000101BD64608F2FD3873EB050002D308F1F4
:10056000010801E092185B41B8F1000F03DA0020A6
:100570000146BDE8F08D00204FF480110646844608
:100580000EE0171B73EB050705D3121B63EB050386
:1005900006434CEA010C49084FEA300092185B41CF
:1005A00050EA0107EDD152EA030012D082EA0400BA
:1005B00083EA0501084305D0101BAB4106D2012296
:1005C000002306E000224FF0004302E06FF001023A
:1005D00053101AEB06004CEB085110EB0A0041EBEC
:1005E0000B01BDE8F04D00F055B8C1F30A52C1F35C
:1005F000130140F2FF3341F480119A4202DA0020E5
:100600000146704740F233439A42A2F2334202DC81
:100610005242FFF752BEFFF741BE000030B5041E44
:1006200071F1000404DB4FF00044404264EB01012F
:10063000141E73F1000405DB1C464FF000435242C8
:1006400063EB0403994208BF904230BD064C074D4E
:1006500006E0E06840F0010394E807009847103492
:10066000AC42F6D3FFF794FD004A0008204A000888
:10067000202A06DBCB17203A41FA02F043EAE07366
:1006800006E041FA02F3D040C2F120029140084353
:100690001946704710B5141E73F1000408DA401CA7
:1006A00041F1000192185B411A4301D120F0010091
:1006B00010BD2DE9F04D92469B4611B1B1FA81F281
:1006C00002E0B0FA80F220329046FFF7E7FD0446E0
:1006D0000F4640EA0A0041EA0B0153465A460843D6
:1006E00013D0114653EA010019D0C8F14002504618
:1006F000FFF7E3FD05460E46504659464246FFF7D2
:10070000CDFD084305D0012004E020463946BDE870
:10071000F08D0020054346EAE0762C4337430A98E3
:100720006305E40AA0EB08000022FD0A44EA4754EE
:100730000A3002D500200146E9E701051019694198
:10074000DDE9084500196941BDE8F04DA2E710B5A3
:100750000146806B026C12F0500F05D0026CD2067D
:1007600026D500F0F9FC10BD016C41F40071016464
:1007700001688A6812F0405F17D1027EAAB9CA6A7E
:1007800012F4700F02D08A6852050ED44A6822F023
:1007900020024A60016C21F480710164016CC9047B
:1007A00003D4016C41F00101016400F0D3FC10BDE1
:1007B000806BC26CBDE810400846104710B5806BD6
:1007C00040210164416C41F00401416400F0C4FC2B
:1007D00010BD10B5806B00F0BEFC10BD10B5054813
:1007E00000F0BBFC044800F0B8FCBDE81040034832
:1007F00000F0B3BC70010020B8010020000200200E
:10080000464910B54A6822F440324A604A68436853
:100810001A434A6001684A6822F480724A6001689B
:100820004A68036942EA03224A6001684A6822F082
:1008300040724A6001684A6883681A434A600168E6
:100840008A6822F400628A6001688A68C3681A4371
:100850008A60816A6FF07062D14201688A6822F012
:1008600070628A6001688A680CD0836A1A438A6061
:1008700001688A6822F040528A6001688A68C36A07
:100880001A4301E022F040528A6001688A6822F02F
:1008900002028A6001688A68037E42EA43028A6033
:1008A00090F82010002901684A680FD042F40062D5
:1008B0004A6001684A6822F460424A6001684A68F6
:1008C000174C436A04EB43331A4301E022F40062FD
:1008D0004A600168CA6A22F47002CA620168CA6A80
:1008E000838B104C04EB03531A43CA6201688A6875
:1008F00022F400728A6001688A6890F8303042EA17
:1009000043228A6001688A6822F480628A600168F2
:100910008A68406942EA8020886010BD0023014057
:1009200000E0FFFF0000F0FF10B504462DED028B44
:10093000B0EE408A03F002F984ED000AB0EE480AF6
:1009400003F0A4F984ED010ABDEC028B10BD70B573
:1009500000234E1E14E00022CD1A6D1E0DE000EBA8
:10096000820494EC020AB4EEE00AF1EE10FA03DD20
:10097000C4ED000A84ED010A521C9542EFDC5B1CB9
:10098000B342E8DB70BDFEE7B0EE001A80ED000A6E
:1009900000EE810ADFED030A20EE200A80ED010A55
:1009A000704700003ACD133F30EE600A81ED060A31
:1009B000D1ED000A60EE800AC1ED080A91ED010A4E
:1009C00091ED071A20EE010A81ED090A30EE800A46
:1009D000D1ED040AF4EEC00AF1EE10FA06D3D1ED1F
:1009E000050AF4EEC00AF1EE10FA02DDC0ED000ACD
:1009F00001E080ED000AD0ED001AD1ED060A91ED7C
:100A0000031A31EEC00A41EE000A91ED070A30EEFA
:100A1000800A81ED070A7047014800F0B1BD00006F
:100A20004802002001681823CAB2103AB2FBF3F260
:100A3000054B6FF30901032A9B5CC36500D9091DAF
:100A40008165084670470000C049000810B501469E
:100A500000208B698A6A4FF0C07453B1B3F5005F10
:100A600015D072B1012A0CD0022A0AD0032A09D16A
:100A700004E01AB1012A06D0022A03D1C96AC901C9
:100A800000D5012010BDC96AA142FAD010BD002ACC
:100A9000F7D0012AF2D0022AF3D0032AF3D010BDF6
:100AA00030B50468256825F48025256004686360F6
:100AB0008368402B036803D099600068C26030BD32
:100AC0009A600068C16030BD704772B6FEE70000F2
:100AD0000D48B3EE080A0E4980ED010A9FED0B0A9E
:100AE00080ED020A90ED030A81ED000A90ED040A00
:100AF000094881ED010A9FED070A084980ED050AC2
:100B000000200870704700009000002000408346DD
:100B1000180000200000484354010020000100207C
:100B200070B53C48D0F83C119FED3B1A00EE101A0E
:100B3000F7EE041ADFED392AB8EE400AF0EE610A4A
:100B40009FED372A374920EE010A50EE220A80EE47
:100B5000820A81ED000AC26BB0EE613A00EE902A83
:100B6000F8EE600A60EE810A10EEA23AC3EE020AC5
:100B7000C1ED010AD0F83C0203EE100A2A48B8EE93
:100B8000433A23EE011A51EE221A81EE821A81EDC8
:100B9000021AFFF7F9FE234C2348143C183894ED51
:100BA000000AFFF7C1FE20480830A0F1200595ECAF
:100BB000021AD5ED070A95ED060A02F085FB05F14C
:100BC000200694ED030AD6ED000A184905F1080045
:100BD000FFF7EAFED6ED010A94ED040A144905F187
:100BE0000C00FFF7E1FE95EC021A05F11000D5EDBF
:100BF000030A95ED020A02F075FBD4ED021A94ED9A
:100C0000011AD5ED050A95ED040ABDE8704002F021
:100C100077BB00000020014033335340000080398F
:100C20008FC2F53DA400002028000020B000002065
:100C3000D800002070B590F83C20694D012A19D0E9
:100C4000012280F83C200A6807230468092A13D986
:100C5000E6680A3A02EB420293409E43E6600A7855
:100C60008B680A3A02EB420293400268D46823433D
:100C7000D36010E0022070BD266902EB420293406F
:100C80009E4326610A788B6802EB42029340026819
:100C90001469234313610268936B23F44013936335
:100CA0000268936B0C8A4F4E06EB04542343936304
:100CB0000A790B7CD21AD21C02EB82021F239340CA
:100CC0000268946B9C4394630A790B7CD21AD21C01
:100CD00002EB82030A8892B29A4003689C6B22431B
:100CE0009A638A69AA420268936823F47023936026
:100CF000026893680CD08C69234393600268936800
:100D000023F44013936002689368CC69234301E0A5
:100D100023F4401393604A7D002A0268536802D08E
:100D200043F4806301E023F4806353600A7D002A6A
:100D30000268536802D043F4805301E023F48053E7
:100D400053604A68012A16D0022A1FD0032A02687B
:100D500027D0136A6FF30B0313620268136ACC681F
:100D600023431362214B04681F4A9C4227D10C681D
:100D7000122C20D023E0026853696FF30B035361F8
:100D800002685369CC6823435361EBE702689369B7
:100D90006FF30B03936102689369CC6823439361FB
:100DA000E0E7D3696FF30B03D3610268D369CC68C2
:100DB0002343D361D6E7546844F480045460046844
:100DC0009C4208D10968102901D0112903D151682A
:100DD00041F400015160002180F83C10084670BDCC
:100DE00001000F000000F0FF00230140002001403F
:100DF00002F030B918B50021009190F83C20012A8A
:100E000007D0012280F83C2002689368DB0702D0FB
:100E100011E0022018BD936843F001039360284A53
:100E2000284B1268B2FBF3F202EB420200E0521EC2
:100E30000092002AFBD102689368DB0735D0036C6F
:100E400042F20104A34343F480530364036CDB05C3
:100E500000D4416480F83C106FF0040111601A491D
:100E600049680068C906816801F440110FD0D1B10A
:100E700000224168154B41F38021491C98421CD146
:100E8000DAB1D1B1816841F48001816015E041B1EE
:100E90000021426842F38022521C71B1002AF1D134
:100EA0000BE00121F5E70122E3E7016C41F01001BD
:100EB0000164416C41F001014164002018BD000053
:100EC0008400002040420F00002301400020014028
:100ED00018B50022009290F83C10012907D001219A
:100EE00080F83C1001688B68DB0702D011E002201B
:100EF00018BD8B6843F001038B602A492A4B0968AF
:100F0000B1FBF3F101EB410100E0491E0091002922
:100F1000FBD101688B68DB073AD0036C42F2010415
:100F2000A34343F480530364036CDB0500D44264A1
:100F300080F83C206FF004020A6001684A6842F0C1
:100F400080024A60194949680068C906816801F44D
:100F500040110FD0D1B100224168154B41F38021DF
:100F6000491C98421CD1DAB1D1B1816841F48001A9
:100F7000816015E041B10021426842F38022521C99
:100F800071B1002AF1D10BE00121F5E70122E3E77D
:100F9000016C41F010010164416C41F001014164B8
:100FA000002018BD8400002040420F0000230140B3
:100FB0000020014010B590F83C20012A1FD00122EA
:100FC00000F83C2F0F4A536823F01F035360536807
:100FD0000C6823435360536823F4404353605368C1
:100FE0004C6823435360536823F470635360536821
:100FF00089680B43536000210170084610BD022030
:1010000010BD00000023014078B50024009490F842
:101010003C20012A19D0012280F83C200A680723CD
:101020000568092A13D9EE680A3A02EB4202934096
:101030009E43EE600B788A680A3B03EB43039A40B9
:101040000368DD682A43DA6010E0022078BD2E696B
:1010500002EB420293409E432E610B788A6803EBB9
:1010600043039A4003681D692A431A614A681F2393
:10107000072A13D205686E6B521E02EB8202934060
:101080009E436E630B790A885B1E92B203EB830367
:101090009A4003685D6B2A435A6327E005680D2A6E
:1010A00012D22E6BD21F02EB820293409E432E631C
:1010B0000B790A88DB1F92B203EB83039A40036823
:1010C0001D6B2A431A6311E0EE6A0D3A02EB8202AD
:1010D00093409E43EE620B790A880D3B92B203EB7C
:1010E00083039A400368DD6A2A43DA62164B056877
:1010F000144A9D4206D10D68122D03D1556845F45E
:101100008005556005689D4218D10B68102B01D0F1
:10111000112B13D1536843F400035360096810295D
:101120000CD10A490A4A0968B1FBF2F101EB8101CD
:10113000490000E0491E00910029FBD180F83C40A5
:10114000002078BD002301400020014084000020E1
:1011500040420F0070477047704770B50446006802
:101160000668456816F0020F05F020012AD049B341
:10117000216CC90603D4216C41F40071216481689B
:1011800011F0405F17D1217EA9B9C16A11F4700F27
:1011900002D0816849050ED4416821F020014160E8
:1011A000206C20F480702064206CC00403D4206C78
:1011B00040F0010020642046FFF7CCFF21686FF06B
:1011C0001200086016F0040F05F0800132D089B3D8
:1011D000206CC00603D4206C40F4005020642068CA
:1011E000816811F4401F1ED1816B11F4401F02D0A1
:1011F0008168490517D44168490514D4816811F004
:10120000405F10D1217E71B9416821F080014160B9
:10121000206C20F480502064206CC00503D4206C26
:1012200040F0010020642046FFF7E2FD21686FF0E6
:101230000C00086016F0010F05F040010FD071B1ED
:1012400020680068C0070AD0206C40F48030206419
:10125000204600F043F821686FF00100086016F0A6
:10126000200F05F080610ED000290CD0606C40F09A
:101270000200606420686FF0200505602046FFF7DB
:101280006BFF2068056070BD70B504004FF000056D
:1012900003D0206C002610B107E0012070BD20466D
:1012A00000F01EF8666484F83C60206CC00610D420
:1012B000206C20F4885040F0020020642046FFF7A4
:1012C0009FFA6664206C20F0020040F00100206468
:1012D00000E0012584F83C60284670BD704700009E
:1012E000F0B587B0064614216846FEF7A3FF4748CD
:1012F000DFF814C133680024444914380325444AF4
:10130000444F634540D10B6843F480730B60096818
:1013100001F480710591016841F0010101600168EB
:1013200001F001010591016841F0020101600068CE
:10133000694600F0020005904120CDE900050294C5
:10134000104600F0A1FA0220CDE90005694602949A
:10135000384600F099FA314D2F48C5E900040015D0
:10136000AC60C5E90340400068618000A86140119D
:10137000C5E9070428466C6200F0D2F908B1FFF70E
:10138000A4FBB563AE6319E0254EB34220D10A68D1
:1013900042F400720A60096801F400710591016865
:1013A00041F0020101600068694600F0020005900A
:1013B0000120CDE900050294384622E000220121F7
:1013C000122000F0D1FB122000F0C0FB07B0F0BDEE
:1013D000144EB342FAD10B6843F480630B60096882
:1013E00001F480610591016841F00101016000682C
:1013F000694600F0010005900820CDE9000502943F
:10140000104600F041FAD9E700200140443802407C
:101410000000024000040240106402404802002024
:101420000021014000220140F8B50E46002104468B
:10143000009190F83C0013460A46012807D001208D
:1014400084F83C0020688568ED0702D011E0022096
:10145000F8BD856845F0010585604048404D00684D
:10146000B0FBF5F000EB400000E0401E00900028CB
:10147000FBD120688568ED0503D5856825F4807566
:10148000856020688568ED075DD0226C40F20165BB
:10149000AA4342F4807222644068400505D5206C5E
:1014A00020F4005040F480502064206CC00404D527
:1014B000606C20F00600606400E0616484F83C1019
:1014C000A16B2948274DC863A16B28480864A16B0C
:1014D0002748C86421686FF02200086020684168CE
:1014E00041F0806141602068816841F480718160D1
:1014F000216832464C31A06B00F07CF902466868E6
:101500001C49C006206806D0884224D1816811F0A9
:10151000405F13D01FE08842F8D0174B984203D1A8
:10152000D1F80433DB06F1D0144B984213D1D1F833
:10153000041301F01F011029E8D30CE0816841F089
:101540008041816007E0206C40F010002064606CF6
:1015500040F0010060641046F8BD000084000020E7
:1015600040420F00002301404F070008D307000846
:10157000BD07000800200140002101400022014079
:101580002DE9F84304464FF00009CDF80090634878
:101590004FF41651A56D0068B0FBF1F72E6894F872
:1015A0005C10082000FA01F131420FD021680A686E
:1015B00052070BD50A6822F004020A6094F85C1006
:1015C0008840A860606D40F00100606594F85C1090
:1015D0004FF0010808FA01F0304208D0216849694B
:1015E000090604D5A860606D40F00200606594F8BB
:1015F0005C1004208840304208D0216809688907BF
:1016000004D5A860606D40F00400606594F85C103B
:1016100010208840304218D021680968090714D585
:10162000A86020680168490304D50068000308D554
:10163000A16C07E00168C90503D4016821F0080125
:101640000160216C09B12046884794F85C10202085
:101650008840304231D021680968C9062DD5A8607C
:1016600094F8350005282068016806D0490347D55D
:10167000006800031DD4616C1CE021F016010160BC
:101680002068416921F080014161206C08B9A06C9B
:1016900020B12068016821F00801016094F85C1015
:1016A0003F208840A86084F8358084F83490216D0C
:1016B0001FE0E16B09B120468847606D00282BD000
:1016C000606DC00714D0052084F8350020680168DB
:1016D00021F0010101600098401C0090B84203D83D
:1016E00020680068C007F6D184F8358084F834900B
:1016F000E16C002910D001B02046BDE8F043084756
:101700000168C905D5D4016821F01001016084F891
:10171000358084F83490CCE7BDE8F883840000205D
:101720002DE9F041044600F0B1F906465CB1022013
:1017300084F83500002584F834502068016821F0D1
:10174000010101600DE00120BDE8F08100F09EF98B
:10175000801B052805D920206065032084F835000A
:10176000F2E720680068C007F0D1226811682048BD
:101770000140D4E901031843D4E903363343184345
:1017800063691843A3691843E3691843236A18433C
:101790000843616A042903D1D4E90B1319430843B0
:1017A000106020684069666A20F0070130460E43E9
:1017B000012704280CD1A06A0643E06A40B1204604
:1017C000FFF744F920B14020606584F83570BAE72E
:1017D000206846612046FFF725F994F85C203F21F8
:1017E00091408160656584F835700020ACE70000A9
:1017F0003F8010F02DE9F0410446866D90F83400EA
:10180000002501280DD0012084F8340094F83570AB
:101810000020012F07D084F8340002252846BDE8B7
:10182000F0810220FBE7022784F8357060652046CE
:10183000FFF736F994F85C103F208840B0602068CC
:10184000016841F016010160206C20B12068016838
:1018500041F0080101602068016841F00101016068
:10186000DCE7000070B5044600F010F90546601C86
:1018700002D004480078044400F008F9401BA0425C
:10188000FAD370BD780000202DE9F84FDFF8BCA135
:101890000022012503264FF00F090AF1040BAAF1DB
:1018A000040E00BF0B6805FA02F42340A34270D176
:1018B0000F7907F00307012F01D0022F16D1876897
:1018C0004FEA420806FA08FC27EA0C07D1F80CC0D8
:1018D0000CFA08FC4CEA070CC0F808C04768A7439C
:1018E0000C79C4F3001494403C4344600C79E44305
:1018F000A4070AD0C4684FEA420C06FA0CF7BC43AE
:101900008F6807FA0CF72743C7600C7904F00304CB
:10191000022C12D1D40800EB840CDCF820405707CD
:10192000FF0E09FA07F824EA0804D1F8108008FA33
:1019300007F848EA0408CCF8208004684FEA420C13
:1019400006FA0CF7BC430F7907F0030707FA0CF708
:10195000274307604C6814F4403F70D03C4C276824
:1019600047F480472760246822F0030704F480448A
:101970000094384C07EB040CDCF8084897074FEA52
:10198000177809FA08F7BC43334FB84202D1002751
:1019900024E054E0314FB84201D101271EE0304F1E
:1019A000B84201D1022719E02E4FB84201D10327D6
:1019B00014E02D4FB84201D104270FE02B4FB8425D
:1019C00001D105270AE02A4FB84201D1062705E0D8
:1019D000284FB84201D1072700E0082707FA08F787
:1019E0002743CCF80878DAF800405746D1F804C00D
:1019F0009C435FEACC2C00D51C433C60DBF80040E4
:101A00005F46D1F804C09C435FEA8C2C00D51C4390
:101A10003C60DEF800407746D1F804C09C435FEAA2
:101A20008C3C00D51C433C60084F083F3C68D1F813
:101A300004C09C435FEACC3C00D51C433C60521C74
:101A4000102AFFF42FAFBDE8F88F0000083C0140DA
:101A500044380240003001400000024000040240CF
:101A600000080240000C0240001002400014024036
:101A700000180240001C02400069084000D001200C
:101A800070470AB1816170470904FBE7014880682B
:101A900070470000780000200248816802781144F5
:101AA00081607047780000200B4810B5016841F450
:101AB00000710160016841F480610160016841F4D6
:101AC00080710160032000F06FF80F2000F006F82D
:101AD00000F024F8002010BD003C024070B50D4D10
:101AE00004464FF47A712878B1FBF0F00A4909688E
:101AF000B1FBF0F000F00AFB48B9102C07D200222D
:101B00002146501E00F030F800206C6070BD0120AE
:101B100070BD000078000020840000200A4808B54D
:101B2000016841F480410160006800F48040009049
:101B30000548001F016841F080510160006800F015
:101B40008050009008BD000044380240002809DBA6
:101B500000F01F02012191404009800000F1E020C7
:101B6000C0F8001170470000F0B40E4B1B680C4623
:101B7000C3F30223C3F10705042D00D90425191D61
:101B8000072901D2002300E0DB1E012606FA05F139
:101B9000491E214099409E40761E16403143F0BCBC
:101BA00001F0BBBF0CED00E0064900F00702086839
:101BB0004FF6FF03184040EA0220034A1043086032
:101BC000704700000CED00E00000FA052DE9F04739
:101BD0000E46050065D0DFF81481D8F80000F7B292
:101BE00000F00700B04207D288F80070D8F8000073
:101BF00000F00700B04254D128683D4C810712D54F
:101C0000400703D5206840F4E050206028780007A2
:101C100003D5206840F4604020602068A96820F067
:101C2000F000084320602878C0072DD0304968684C
:101C30000839012812D0022813D0032811D00968CE
:101C4000890700292DDA216821F003010143216071
:101C5000FFF71CFF814641F2883A0EE009688903CC
:101C6000EFE709688901ECE7FFF710FFA0EB090136
:101C7000514502D90320BDE8F0872068696800F06B
:101C80000C00B0EB810FEFD1D8F80010404601F006
:101C90000701B14207D90770006800F00700B042A1
:101CA00001D00120E7E72878400705D52068E968DA
:101CB00020F4E050084320602878000706D520680B
:101CC000296920F4604040EAC100206000F038F843
:101CD0002168084AC1F30311515CC84006490860F5
:101CE00006480068FFF7FAFE0020C4E7003C024007
:101CF00008380240C8490008840000207C00002009
:101D00000448054900680968044AC1F38221515C0E
:101D1000C84070478400002008380240D8490008B5
:101D20000448054900680968044AC1F34231515C1E
:101D3000C84070478400002008380240D849000895
:101D4000154810B5006810F00C02144813D041106B
:101D5000042A0FD0082A0ED10F4C241F22682368B2
:101D600002F03F025B0207D52068C0F38810A0FB99
:101D7000010106E0084610BD2168C1F38811A1FBEE
:101D800000010023FEF71EFA2168C1F30141491C3E
:101D90004900B0FBF1F010BD083802400024F40007
:101DA0002DE9F84F04006ED02078DFF84C93C0077F
:101DB000A9F104054AD009F104000168C1F38101C9
:101DC000012908D00068C0F3810002280AD1D9F89F
:101DD0000000400206D52868800337D560680028D7
:101DE000E1D033E06068B0F5803F10D0B0F5A02FAF
:101DF000286810D020F480302860286820F48020E3
:101E000028606068A8B1FFF741FE06460DE028682B
:101E100040F48030F4E740F480202860F7E700BF0A
:101E2000FFF734FE801B642873D828688003F7D539
:101E30000CE0FFF72BFE064605E000BFFFF726FE8D
:101E4000801B6428F0D828688003F7D42078DFF856
:101E5000AC8280074FF0000A3ED5A748001D0168FC
:101E600011F00C0F08D00068C0F3810002280BD1DC
:101E7000D9F80000400207D42868800716D5E0682A
:101E8000012800D112E033E1E068B8B10120C8F8C0
:101E90000000FFF7FBFD064605E000BFFFF7F6FD7B
:101EA000801B0228C0D828688007F7D528682169D8
:101EB00020F0F80040EAC10028600DE0C8F800A05A
:101EC000FFF7E4FD064604E0FFF7E0FD801B022873
:101ED0001FD828688007F7D42078000722D5864FBE
:101EE00087486169703771B101210160FFF7CEFD4C
:101EF000064604E0FFF7CAFD801B022809D83868AF
:101F00008007F7D50EE0C0F800A0FFF7BFFD06463A
:101F100005E082E0FFF7BAFD801B02287DD8386813
:101F20008007F7D42078400768D5DFF8CCB10027C8
:101F30000BF13C0BDBF80000C0000BD4DBF8001009
:101F400041F08051CBF80010DBF80000012700F0D1
:101F5000805000906B4E3068C00510D4306840F45B
:101F600080703060FFF792FD009005E0FFF78EFD76
:101F70000099401A022850D83068C005F6D55E4E48
:101F8000A0686C3601280FD00528306810D020F0EA
:101F900001003060306820F004003060A068B8B103
:101FA000FFF774FD00900FE0306840F00100F4E7A7
:101FB00040F004003060F7E7FFF768FD0099411A30
:101FC00041F28830814266D830688007F4D50EE04F
:101FD000FFF75CFD009007E0FFF758FD0099411AFC
:101FE00041F28830814256D830688007F4D42FB14E
:101FF000DBF8001021F08051CBF80010A069C8B3C5
:102000003D49091D0968C1F3810102294AD002280E
:10201000504607D0C8F8600000E03CE0FFF736FD0E
:1020200004463BE04746C8F86000FFF72FFD064630
:1020300005E000BFFFF72AFD801B02282BD8286887
:102040008001F7D4D4E907010843A16A2E4A490860
:1020500002EB0141626A41EA8211084394F82C10B4
:1020600040EA0161C9F8001001203866FFF70EFD53
:10207000044606E03EE000BFFFF708FD001B022813
:1020800009D828688001F7D534E000BFFFF7FEFCCF
:10209000001B022802D90320BDE8F88F28688001C0
:1020A000F4D427E00128F7D0D9F80000E26900F461
:1020B000800191421CD1226A00F03F01914217D168
:1020C00047F6C071626A0140B1EB821F10D1A26A6B
:1020D0004FF0FF3300F4403103EB5202B1EB024FFB
:1020E00006D194F82C1000F07060B0EB016F01D0B5
:1020F0000120D1E70020CFE704380240000047422A
:10210000800E4742007000400000FFFF10B5401EE7
:10211000B0F1807F01D3012010BD4FF0E024606159
:102120000F21601701F0F9FC0020A0610720206159
:10213000002010BD7047704710B590F83C20012A70
:1021400022D0012280F83C20CA688C6822F44072B8
:1021500022434C6822F4806222430C6822F400621D
:1021600022430C6922F4805222434C6922F400522B
:102170002243C969002322F480420A4301684A6469
:1021800080F83C30002010BD022010BD70B588B032
:102190000E46040004D094F83D00002518B107E075
:1021A000012008B070BD84F83C50204600F056F87D
:1021B000022084F83D00211D206801F01FFAB36859
:1021C00031680322206801F05DFB2068816921F0FD
:1021D0000C01816120688169726811438161206806
:1021E000416841F0800141602068816821F0700100
:1021F00081602068816841F04001816020688168C9
:1022000021F0070181602068816841F0040181604C
:102210007020059504950695039502950090F06849
:1022200001906946206801F09BFA2068416821F01E
:10223000700141602068416841F050014160012017
:1022400084F8460084F83E0084F83F0084F8420099
:1022500084F8430084F83D000020A2E710B586B062
:10226000044614216846FDF7E5FF174920688842B7
:1022700027D116480021026842F008020260006877
:1022800000F00800059011481038026842F0800202
:102290000260006800F0800005904FF4E05000906C
:1022A0000220CDE90101CDE9031069460848FFF796
:1022B000EBFA002202213220FFF756FC3220FFF712
:1022C00045FC06B010BD0000000C00404038024044
:1022D000001C024010B590F83E30044690F83F20B4
:1022E00090F8421090F84300012B05D1012A03D148
:1022F000012901D1012801D0012010BD022084F85C
:102300003E0084F83F0084F8420084F843002068CF
:10231000C16841F00201C16001220021206801F082
:10232000D5F912492068884214D0B0F1804F11D0FD
:102330000F4988420ED00F4988420BD00E4988427F
:1023400008D00E49884205D00D49884202D00D4977
:10235000884204D1816801F00701062903D0016891
:1023600041F001010160002010BD000000000140AB
:102370000004004000080040000C00400004014040
:10238000004001400018004070B590F83C20012A40
:1023900032D0012480F83C40022280F83D200368BE
:1023A0005A689D6822F070060A6832435A60134BDF
:1023B00002689A4214D0B2F1804F11D0104B9A4269
:1023C0000ED0104B9A420BD00F4B9A4208D00F4BB5
:1023D0009A4205D00E4B9A4202D00E4B9A4204D13B
:1023E000496825F080031943916080F83D40002141
:1023F00080F83C10084670BD022070BD000001400E
:102400000004004000080040000C004000040140AF
:10241000004001400018004010B50446022249B1B6
:1024200004290ED0082913D094F84500012816D0AD
:10243000012010BD94F842000128F9D184F842200F
:102440000FE094F843000128F2D184F8432008E01B
:1024500094F844000128EBD184F8442001E084F88A
:1024600045200422206801F03EF92068416C41F4C7
:102470000041416411492068884214D0B0F1804F76
:1024800011D00F4988420ED00E4988420BD00E4918
:10249000884208D00D49884205D00D49884202D0B3
:1024A0000C49884204D1816801F00701062903D054
:1024B000016841F001010160002010BD00000140F1
:1024C0000004004000080040000C004000040140EF
:1024D000004001400018004070472DE9F0410446DB
:1024E0000068C66805694FF00007A90713D5B10752
:1024F00011D5F91E016101202077206880698007CD
:10250000204602D0FFF7E8FF04E000F0BFF82046C5
:1025100000F064F92777680716D5700714D521688D
:102520006FF004000861022020772068806910F4B1
:10253000407F204602D0FFF7CFFF04E000F0A6F86E
:10254000204600F04BF92777280715D5300713D51B
:1025500021686FF008000861042020772068C069B6
:102560008007204602D0FFF7B7FF04E000F08EF8A6
:10257000204600F033F92777E80616D5F00614D583
:1025800021686FF010000861082020772068C0697A
:1025900010F4407F204602D0FFF79EFF04E000F0D9
:1025A00075F8204600F01AF92777E80708D0F007F9
:1025B00006D021686FF001000861204600F074F930
:1025C000280608D5300606D521686FF0800008611E
:1025D0002046FFF7AFFD680608D5700606D52168CE
:1025E0006FF040000861204600F060F9A8060AD5A7
:1025F000B00608D521686FF0200008612046BDE8CC
:10260000F041FFF798BDBDE8F081000070B586B0DD
:10261000044614216846FDF70DFE184920688842DB
:1026200029D117480024016841F0020101600168C6
:1026300001F002010591016841F0010101600068AB
:10264000022500F0010005904FF460400090CDE9B4
:1026500001540126CDE9034669460A48FFF714F9FB
:102660004FF4E0600090CDE90154CDE9034669469E
:102670000548FFF709F906B070BD000000000140F1
:10268000303802400004024000000240704770B53C
:10269000044690F83C0000260D4601280FD001208A
:1026A00084F83C006AB1042A1DD0082A2FD00C2AD5
:1026B0003FD00126002084F83C00304670BD022047
:1026C00070BD206801F01CF82068816941F00801A4
:1026D00081612068816921F004018161206881693C
:1026E0002A69114311E0206801F03AF820688169F5
:1026F00041F4006181612068816921F48061816118
:10270000206881692A6941EA02218161D2E7206853
:1027100001F05CF82068C16941F00801C1612068DE
:10272000C16921F00401C1612068C1692A691143AE
:1027300011E0206801F07EF82068C16941F4006171
:10274000C1612068C16921F48061C1612068C169EB
:102750002A6941EA0221C161ACE710B5040003D047
:1027600094F83D0010B107E0012010BD002084F86E
:102770003C00204600F01EF8022084F83D00211D98
:10278000206800F03BFF012084F8460084F83E00FA
:1027900084F83F0084F8400084F8410084F8420047
:1027A00084F8430084F8440084F8450084F83D0030
:1027B000002010BD08B500680649884208D10648C7
:1027C000016841F001010160006800F00100009023
:1027D00008BD00000000014044380240704700007E
:1027E00010B50446022249B104290ED0082913D09D
:1027F00094F84100012816D0012010BD94F83E0045
:102800000128F9D184F83E200FE094F83F00012818
:10281000F2D184F83F2008E094F840000128EBD181
:1028200084F8402001E084F841200122206800F073
:102830004DFF16492068164A884201D0904203D1C4
:10284000436C43F4004343642068884213D0B0F1E2
:10285000804F10D00F4988420DD00F4988420AD0CE
:102860000E49884207D0904205D00D49884202D0D7
:102870000C49884204D1816801F00701062903D080
:10288000016841F001010160002010BD000001401D
:10289000000401400004004000080040000C00401B
:1028A00000400140001800407047000070B500680B
:1028B0002849884241D12749274C3431A069096809
:1028C00000250844A061254800684562244E4FF465
:1028D00080613046FFF7D0F82070F1143046FFF7E2
:1028E000CBF8217841EA40002070B1143046FFF760
:1028F000C3F821789FED1C0A41EA80001949C0B253
:1029000020700978DFED190A012917D0022914D1A6
:102910001749062801EB800111ED011A84ED011A17
:102920000BD100BF94ED061AB8EE411AC0EE011AA1
:1029300021EEA00A84ED020AA56170BD0C49183988
:1029400001EB8001022811ED011A84ED011AE9D092
:1029500070BD0000000C004054010020F002002077
:10296000001C024008000020DB0FC940002474490D
:102970005C00002070B5040004D094F841000025EC
:1029800010B106E0012070BD84F84050204600F0F0
:1029900023F8242084F841002068C16821F4005104
:1029A000C160204600F0D6FF2068016921F4904103
:1029B00001612068416921F02A0141612068C168F4
:1029C00041F40051C1606564202084F8410084F81E
:1029D00042006563002070BD10B586B00446142126
:1029E0006846FDF727FC13492068884220D1124829
:1029F0000021026842F010020260006800F010003E
:102A000005900D481438026842F002020260006826
:102A100000F002000590C02000900220CDE90101E5
:102A2000032003900720049069460448FEF72CFF1A
:102A300006B010BD001001404438024000040240BE
:102A40002DE9F843044690F84100984616460D4695
:102A5000202802D00220BDE8F88385B17EB1002095
:102A60006064212084F84100FFF710F8A6848146B5
:102A7000E684A0682027B0F5805F02D003E0012043
:102A8000E9E7206910B12E4600250EE000260CE093
:102A90008021204600F0E4FFA8B9C6B116F8010B6A
:102AA00021684860E08C401EE084E08C4B464FF08B
:102AB0000002CDF800800028EAD14FF04001204606
:102AC00000F0CEFF40B184F841700320C3E735F831
:102AD000020BC0F30800E3E784F841700020BAE776
:102AE00004480068C16841F04001C1600148FFF737
:102AF000F1BB0000F002002070B5284C264D207874
:102B0000A5F1280606EB800195ED020A401CC0B233
:102B100081ED000A20700A281CD1002020709FED52
:102B2000200A0A2184ED010A3046FDF710FF94EDDA
:102B3000010A022006EB8001401CD1ED000AC0B260
:102B4000082830EE800AF5D3F1EE080A80EE201A4C
:102B500084ED011A94ED010ADFED120A9FED121ABD
:102B6000134860EE200A95ED020A40EE010A9FED3F
:102B70000F0AC5ED030A20EE800A85ED040A0078ED
:102B8000012807D195ED050ABDE8704008490948BC
:102B900000F09ABC70BD0000540100203C000020F1
:102BA00000000000CDCC4C3FCDCC4C3E17B7D13807
:102BB00000010020A0000020FEE7000070B590B0EA
:102BC00000240D940E940C94089409940A942021E6
:102BD00068460B94FDF72EFB294828490125016022
:102BE0004FF400310561C0E90114057680F82040FA
:102BF0002449C0E90A140226C661C46080F8305036
:102C00004561FEF741FB08B1FDF75FFF15200C9011
:102C10000CA90E941A48FEF7CDF908B1FDF755FF3F
:102C200004200894CDE9095008A91548FEF7ECF9ED
:102C300008B1FDF74AFF0920CDE9080608A91048A8
:102C4000FEF7E2F908B1FDF740FF0620CDE90005E7
:102C50004FF480100294CDE906408DF8154004959C
:102C60008DF81440694606480394FDF7E3FF0028F9
:102C700001D0FDF72AFF10B070BD00000020014018
:102C8000700100200100000F70B58CB00025089580
:102C900009950A95202168460B95FDF7CBFA1B484C
:102CA0001949012401604FF400310461C0E90115A4
:102CB000047680F82050C560C46180F830504461CB
:102CC000FEF7E2FA08B1FDF700FF0826089608A90A
:102CD0000E48CDE90945FEF797F908B1FDF7F5FE75
:102CE000CDE900648DF81540029504948DF81450D8
:102CF000694606480395FDF79DFF002801D0FDF7C2
:102D0000E4FE0CB070BD000000210140B8010020BD
:102D100070B58CB00025089509950A952021684664
:102D20000B95FDF787FA1B481949012401604FF400
:102D300000310461C0E90115047680F82050C560B7
:102D4000C46180F830504461FEF79EFA08B1FDF787
:102D5000BCFE0326089608A90E48CDE90945FEF7F2
:102D600053F908B1FDF7B1FECDE900648DF81540C7
:102D7000029504948DF81450694606480395FDF7B2
:102D800059FF002801D0FDF7A0FE0CB070BD000077
:102D90000022014000020020094808B5016841F402
:102DA000800101600068002200F480000090022190
:102DB0003820FEF7D9FEBDE808403820FEF7C6BE31
:102DC00030380240F0B587B014216846FDF732FA7A
:102DD00021480024016841F010010160016801F000
:102DE00010010591016841F020010160016801F0C6
:102DF00020010591016841F080010160016801F046
:102E000080010591016841F001010160016801F054
:102E100001010591016841F00201016000680F4F56
:102E200000F002004FF480660590002231463846DB
:102E3000FEF727FE1C2001258DE831006946084871
:102E4000FEF722FD0096CDE9015469463846039409
:102E5000FEF71AFD07B0F0BD303802400014024002
:102E60000010024010B592B000240F941C21684657
:102E70001094FDF7DFF9202107A8FDF7DBF92E48B4
:102E80002C49C0E900142021816042F2D001C0E940
:102E9000031444618461FFF760FC08B1FDF715FE7F
:102EA0000F940FA924481094FFF76EFA08B1FDF7AC
:102EB0000CFE6020CDE90004029403940494059470
:102EC000002269461C480694FFF7E1FB08B1FDF7B4
:102ED000FCFD042269461848FFF7D9FB08B1FDF74D
:102EE000F4FD082269461448FFF7D1FB08B1FDF74D
:102EF000ECFD42F2C60001900C2269460E48FFF735
:102F0000C6FB08B1FDF7E1FD079464200894CDE904
:102F100009404FF40050CDE90B4007A906480E9434
:102F2000FFF70AF908B1FDF7D0FD0348FFF76EFB84
:102F300012B010BD00000140A802002010B586B0FC
:102F400000241248009401940294039404940E49BE
:102F5000059401605321C0E901140D49C0E903142F
:102F600069468461FFF712F908B1FDF7AEFD502004
:102F7000CDE9040404A90548FFF706FA002801D0AA
:102F8000FDF7A3FD06B010BD000C0040F0020020CC
:102F90009F8601000C4810B50A4901600B49416049
:102FA000002181600C22C160C0E904128161C1610D
:102FB000FFF7E0FC002803D0BDE81040FDF785BD19
:102FC00010BD0000001001403803002000941100E3
:102FD000FEE7000010B501F0E9FCFDF779FD00F017
:102FE00023F9FFF77DFD00211548FFF7F9FB0021CC
:102FF0001348FFF711FA04211148FFF7F1FB0421F0
:103000000F48FFF709FA08210D48FFF7E9FB0821EF
:103010000B48FFF701FA0C210948FFF7E1FB0948CB
:10302000FDF756FF0848FDF7E5FE0848FDF7E2FE0C
:10303000BDE81040022206490248FEF7F5B900003B
:10304000A802002070010020B8010020000200202A
:10305000740000202DE9F003644A92F801C0BCF12D
:10306000000F7DD0624D634E634FDFF890814FF4C7
:103070007A6910469FED620A04789FED621A4368F0
:1030800008386149D0ED010A5B1CBCF1010F06D084
:10309000BCF1020F39D0BCF1030F6ED16EE0F7EE38
:1030A000001AC1ED031A81ED040A4FF0000C85F8F7
:1030B00000C0DFED561A012C24D070EEE10A00BFEB
:1030C00010EE904AC0ED010AB44203DD70EEC10A71
:1030D000C0ED010AF5EEC00AF1EE10FA03D270EE6F
:1030E000810AC0ED010AC1ED000A53604B4575D35A
:1030F00087ED070A88ED070A80ED010A0220C2F871
:1031000004C039E070EEA10ADAE781ED030AF7EEB8
:10311000081AC1ED041ADFED3E1A5360012C04D0E9
:10312000022C05D0D0ED010A06E070EEA10A01E004
:1031300070EEE10AC0ED010A10EE904AB44203DDE0
:1031400070EEC10AC0ED010AF5EEC00AF1EE10FA08
:1031500003D270EE810AC0ED010AC1ED000A00E061
:1031600040E04B453AD387ED070A88ED070A85ED25
:10317000080A01202870032050702FE02548012CF8
:103180000246D0ED011AD2ED040A01D0F1EE600A38
:1031900071EEA00A10EE902AC0ED010AB24202DDE3
:1031A00070EEC10A06E0F5EEC00AF1EE10FA03D2A5
:1031B00070EE810AC0ED010A81ED030AC1ED000A3B
:1031C000154A0869904202DA9FED140A04E0144A95
:1031D000904203DDB0EE0C0A81ED040ABDE8F00375
:1031E000FDF79EBCBDE8F00370470000080000201A
:1031F00000010020DB0FC940B0000020D8000020F3
:1032000000000000DB0FC94090000020ECC1A43A90
:103210000AD7233C54010020CDCC4C3FCDCC4C3FB1
:1032200000006040FEE7000022489FED210AF7EE13
:10323000080A80ED030AC0ED040A1F48DFED1F0AEB
:10324000B7EE001A80ED020AC0ED010A80ED001A07
:10325000C0ED030A80ED060AF9EE041AC0ED051A66
:10326000B1EE042A80ED042A283080ED020AC0ED78
:10327000010A80ED001AC0ED030A80ED060AC0EDD8
:10328000051A80ED042A2830DFED0D0A80ED030ACF
:10329000C0ED020ADFED0B0AC0ED010A80ED041A51
:1032A00080ED070AC0ED061A80ED052A7047000080
:1032B0000000000090000020B00000200AD7A33BCF
:1032C00017B7D1385C8F423E20EE012A00EEA12ACA
:1032D00060EE810A40EE610A80ED002AC0ED010A2D
:1032E0007047704721EE002A21EE800A01EEE02AA5
:1032F00001EE200A80ED002A80ED010A7047704738
:10330000F5EEC00A0021F1EE10FA00DD0121B0EE69
:10331000602ADFED682AB6EE003A10EE222A22EE8D
:10332000032AB5EEC02AF1EE10FA00DD891CB0EEDA
:10333000602AF0EE402ADFED603A12EEA32A22EE78
:10334000032AB5EEC02AF1EE10FA00DD091DFFEEEA
:10335000085A20EE252ADFED593AF7EE082A20EE2A
:10336000224A00EEA32A00EEA34ADFED533A60EEB4
:10337000A33A23EEA15ADFED523A60EEA33AF0EE03
:10338000634A40EE653ADFED4B5A40EE624A81EE09
:10339000810A60EEA50A062960EEA10A1DD2DFE8C7
:1033A00001F01C03080D121760EE022A20EE042A19
:1033B00017E085EE012A60EE042A12E080EE812AF1
:1033C00060EE232A0DE0C5EE012A20EE022A08E075
:1033D000C0EE812A20EE242A03E060EE242A20EEAB
:1033E000232A32EE820AB4EEE10AF1EE10FA05DD8C
:1033F000C1EE800A62EEA02A22EE202AF5EE000A33
:103400003048072932EE820A31EEC00A60EE200A07
:10341000B0EE600A02EE830AB0EE401A02EE031A22
:1034200046D2DFE801F045040C1421293600BCEE39
:10343000C00A10EE101A4163BCEEE00A0EE0FCEE8A
:10344000E00A10EE901A4163FCEEC10A1BE0FCEEAC
:10345000E00A10EE901A4163BCEEC00A10EE101A9A
:103460008163BCEEC10A20E0BCEEC11A11EE101A55
:103470004163BCEEC00A13E0BCEEC11A11EE101A93
:103480004163FCEEE00A10EE901A8163BCEEC00AC4
:103490000BE0BCEEC00A10EE101A4163BCEEC10A8C
:1034A00010EE101A8163BCEEE00A10EE101AC16330
:1034B00070470000D7B3DD3FD7B3DDBFD7B35D3F63
:1034C000D7B35DBF0000014030EE600A81ED070A0E
:1034D000D1ED010A60EE800AC1ED090A91ED020A00
:1034E00091ED081A20EE010A81ED0A0A30EE800AF9
:1034F000D1ED050AF4EEC00AF1EE10FA06D3D1EDD3
:10350000060AF4EEC00AF1EE10FA02DDC0ED000A80
:1035100001E080ED000AD0ED001AD1ED070A91ED2F
:10352000041A31EEC00A41EE000A91ED080A30EEAD
:10353000800A81ED080A704710B5FEF7ADFABDE8C4
:103540001040AFF30080FFF7D7BA000030B593B05A
:1035500030216846FCF76EFE14210CA8FCF76AFEC9
:103560001D480025016841F080510160006800F0AD
:10357000805011901948016841F480410160006851
:10358000022400F48040119001200090000401907A
:103590008001CDE9064008AA0420A82182E8130092
:1035A0000B906846FEF7FCFB08B172B6FEE70CA96B
:1035B0000F2081E831004FF4A0500F904FF480505D
:1035C000109005210CA8FEF701FB002801D072B66F
:1035D000FEE713B030BD00004038024000700040EC
:1035E0000248016841F470010160704788ED00E015
:1035F0000148FEF772BF0000F0020020F0B502683B
:10360000274B284D284E294F294C4FF0804C98428B
:1036100009D0604507D0A84205D0B04203D0B842D7
:1036200001D0A04204D122F0700E4A6842EA0E0294
:1036300098421BD0604519D0A84217D0B04215D08F
:10364000B84213D0A04211D01A4DA8420ED01A4D44
:10365000A8420BD0194DA84208D0194DA84205D058
:10366000184DA84202D0184DA84203D122F440754B
:10367000CA682A434D6922F080022A438D68C562D8
:103680000D688562984201D0A04201D109690163A9
:10369000016841F004010160012141610260F0BD57
:1036A000000001400004004000080040000C004001
:1036B0000004014000400140004401400048014036
:1036C00000180040001C00400020004010B501F030
:1036D0001F030121046A99408C430462016A9A40E5
:1036E0001143016210BD10B501F00F030421046AFB
:1036F00099408C430462016A9A401143016210BDF3
:10370000F0B5036A026A22F001020262426884692B
:10371000124E24F073050C682C4323F002058B68CD
:103720002B430D4DA84201D0B04205D123F008072C
:10373000CB683B4323F00403A84201D0B04205D13B
:103740004D6922F4407215438A692A4342608461BC
:10375000496841630362F0BD00000140000401407C
:10376000F0B5026A036A23F01003036243688469B8
:103770000D6824F4E64444EA05248D6822F0200212
:1037800042EA05120F4D104EA84201D0B04206D1B8
:10379000CF6822F0800242EA071222F04002A842DB
:1037A00001D0B04207D14D6923F4406343EA850359
:1037B0008D6943EA850343608461496881630262DD
:1037C000F0BD00000000014000040140F0B5026AB5
:1037D000036A23F4807303624368C46922F40072AD
:1037E00024F073050C68124E2C438D6842EA0522C2
:1037F0000E4DA84201D0B04206D1CF6822F400623B
:1038000042EA072222F48062A84201D0B04207D1E6
:103810004D6923F4405343EA05138D6943EA0513C8
:103820004360C4614968C1630262F0BD00000140A9
:103830000004014030B5046A026A22F48052026238
:103840004268C3690D6823F4E64343EA05238D68A3
:1038500024F4005444EA0534084DA84202D0084D2F
:10386000A84204D14D6922F4804242EA85124260A6
:10387000C36149680164046230BD0000000001407A
:103880000004014070B5056A046A24F00104046272
:103890008469154EB04214D0B0F1804F11D0134E50
:1038A000B0420ED0124EB0420BD0124EB04208D0F1
:1038B000114EB04205D0114EB04202D0104EB0426F
:1038C00003D124F00304144301E044F001041A0777
:1038D00024F0F00444EA126225F00A0301F00A0120
:1038E00019438261016270BD000001400004004084
:1038F00000080040000C004000040140004001406E
:103900000018004001680C3151E8002F22F4907239
:1039100041E80023002BF5D10168143151E8002F54
:1039200022F0010241E80023002BF5D1016B0129AF
:1039300009D101680C3151E8002F22F0100241E852
:103940000023002BF5D1202180F8421000210163D3
:103950007047000070B5044600680169E26821F410
:103960004051114301612169A068E269084361691E
:10397000114308432168CA6849F20C639A43024321
:10398000CA6020684169A26921F440711143416114
:1039900031492068884202D03049884202D1FEF77E
:1039A000BFF901E0FEF7ACF9E269002319216425B3
:1039B0003226B2F5004F626828D0A0FB0101930FB8
:1039C0009200FCF7FFFB0146B0FBF5F06FF0180228
:1039D000504301EB800006EB0010B0FBF5F000F067
:1039E000F002B1FBF5F002EB0012B1FBF5F06FF065
:1039F0001803584301EB800006EB0010B0FBF5F014
:103A000000F00F0021681044886070BDA0FB010128
:103A100092185B41FCF7D6FB0146B0FBF5F00201C2
:103A2000B1FBF5F06FF01803584301EB800006EB93
:103A3000C000B0FBF5F000F0F80002EB4002B1FB73
:103A4000F5F0584301EB800006EBC000B0FBF5F049
:103A500000F00700D6E7000000100140001401400C
:103A60002DE9F843984617460D460446089E24E083
:103A7000701C22D0FEF70AF8A0EB0800B0421AD85A
:103A8000CEB12068C168490717D5802D15D0402DCB
:103A900013D00168C94309070FD4016800254068A5
:103AA00000902046FFF72EFF0820606484F8405005
:103AB0000120BDE8F8830320FBE72068006835EAB1
:103AC000000004D00020B842D2D00020F1E701204D
:103AD000F9E7FEE70FB4054B10B503A9044A0298B5
:103AE00000F032FB10BC5DF814FB000051480008E8
:103AF000880000204100080218BF04200A0E18BFE9
:103B000040F001004FF07F4232EA010108BF40F06F
:103B10000200012808BF052070470907090E002888
:103B200004DB00F1E02080F80014704700F00F0083
:103B300000F1E02080F8141D7047000010EE101A0C
:103B400008B5444A6846B2EB410F28D94FF0E64029
:103B5000B0EB410F94BF00204FF0FF300090009871
:103B6000002861DB60EE000A10F0010F45D010F074
:103B7000020FDFED391A9FED391A00EEE11ADFED81
:103B8000381A40EE811A21EEA01AF0EE400A40EEFB
:103B9000010A08BFF1EE600AB0EE600A08BD314BC1
:103BA00021F0004293423CD911F0004FDFED2E0A84
:103BB00020EE201ADFED2D0A19BF31EE601A71EEEA
:103BC000200A31EE201A71EE600ABDEEE01A11EE05
:103BD000100A9FED271A00F0030000EEC10A9FEDC6
:103BE000251A009000EEC10A9FED231A00EEC10ACB
:103BF0009FED221A00EEC10AB1E79FED211A9FED59
:103C0000210A10F0020F00EE810A9FED1F1A00EE4C
:103C1000801AB7EE000A00EE810A18BFB1EE400A22
:103C200008BD00F00FF99AE710EE100A4000B0F15D
:103C30007F4F3CBFB7EE000A08BD07D14FF001002F
:103C400000F0BAF9BDE8084000F0ECB8BDE8084063
:103C500000F0E4B8B61F927E336D4C39DA82083C2E
:103C6000A0AA2ABE490E494683F9223F0000004B14
:103C70000000C93F00A0FD390020A2331A61342C96
:103C8000B93AB2BACA9F2A3DDDFFFFBE00B510EEB9
:103C9000101A2DED028B81B0524A6846B2EB410FEB
:103CA0002ED94FF0E640B0EB410F94BF00204FF00B
:103CB000FF3000900098B0EE408A00286ADB10F0D8
:103CC000010F4BD068EE080A9FED471A9FED470A97
:103CD00000EE810A9FED461A10F0020F00EE801AE6
:103CE000B7EE000A00EE810A02BF01B0BDEC028B04
:103CF00000BD00BF01B0B1EE400ABDEC028B00BDBB
:103D00003C4B21F00042934241D911F0004FDFEDCE
:103D10003A0A20EE201ADFED390A19BF31EE601A97
:103D200071EE200A31EE201A71EE600ABDEEE01A43
:103D300011EE100A9FED321A00F0030000EEC10AE6
:103D40009FED301A009000EEC10A9FED2F1A00EE91
:103D5000C10A9FED2E1A00EEC10AABE728EE080A51
:103D60009FED2B1ADFED2B0A10F0020F40EE410AF7
:103D70009FED291A00EE201A61EE000AB0EE480A03
:103D800008EE200AB6D101B0BDEC028B00BD00F0F8
:103D900059F88FE718EE100A4000B0F17F4F0DD2AE
:103DA00018EE100AFFF7A6FE042808BF00F042F83C
:103DB000B0EE480A01B0BDEC028B00BD09D1012074
:103DC00000F0FAF801B0BDEC028B5DF804EB00F0F6
:103DD00029B801B0B0EE480ABDEC028B5DF804EBE7
:103DE00000F01CB8B61F927EB93AB2BACA9F2A3DFB
:103DF000DDFFFFBE490E494683F9223F0000004B1C
:103E00000000C93F00A0FD390020A2331A61342C04
:103E1000336D4C39DA82083CA0AA2ABE30EE000A83
:103E200070470000DFED020A80EEA00A7047000034
:103E3000000000009FED020A20EE000A704700001B
:103E4000000000102DE9F0014FF07F42B2EB410F6E
:103E50009FBF4FF0FF310160BDE8F00170474FF0A8
:103E6000004242EA0123C1F3C752783A551112F0D9
:103E70001F0C434CCCF120067C44C1F3C752A2F185
:103E800078024FEA621204EB820254F8254008BF20
:103E9000D2E9015612D0556804FA0CF425FA06F757
:103EA0003C43976805FA0CF527FA06F8D26807FA3A
:103EB0000CFCF24045EA08054CEA0206A4FB034C60
:103EC000A5FB0352A6FB03631D449D4234BF01269C
:103ED00000261319334416B1934202D903E09342EA
:103EE00001D2012200E00022624402F1200C92067D
:103EF000DC0C42EA443200EE102A5B03DFED210ABB
:103F0000F8EEC01A00EE103A4FEA9C1C11F0004F78
:103F1000B8EE400AC0F800C020EE201A00EE105A99
:103F2000DFED190AB8EE400A20EE200A71EE810A90
:103F300070EE800A10EE902A02F500626FF30B0219
:103F400000EE902A70EEE11A31EEC11ADFED101A80
:103F500030EE411A9FED0D0A20EE800A01EE210A93
:103F60009FED0C1A00EE810A04BFBDE8F001704716
:103F7000CCF180510160BDE8F001B1EE400A70471C
:103F8000640B0000000000360000802C22AAFD29EE
:103F9000DB0FC92F0000C92F02E008C8121F08C19B
:103FA000002AFAD170477047002001E001C1121FBA
:103FB000002AFBD1704700000149086070470000EB
:103FC0008C0000202DE9FF5F82B00021DDE9043084
:103FD000020DDDF840B0034318D044F61050A2F2B1
:103FE000FF3242431514119801281FD0A5EB0B0096
:103FF000401C5FEA000A4FF000064E4FDFF8389190
:10400000B046504615D5CAF1000413E011980124BA
:104010004AA3012801D16FEA0B010298119AC0E965
:104020000031C0E9024206B0BDE8F09FCBF10000CC
:10403000DFE704460021404A491842EB0450CDE92D
:10404000001012E0E00707D032463B4640464946A2
:10405000FCF7EAF98046894632463B461046194647
:10406000FCF7E2F906460F466410002CEAD1DDE9C0
:104070000401DDE90023BAF1000F06DAFCF7D4F9F8
:1040800042464B46FCF7D0F905E0FCF73FFA4246C2
:104090004B46FCF73BFA04460E460022284BFCF741
:1040A000BDFA03D84FF0FF30014607E00022254B50
:1040B00020463146FCF711F9FCF797FA102409E085
:1040C000002C0ADB0A220023FCF77CF8039B303229
:1040D0001A55641E50EA0102F2D1641C039AC4F11D
:1040E00011031444119A012A03D0012208430DD16F
:1040F0000AE0084304D000204FF0110B119072E742
:10410000A3EB0B056D1E0DE05B4504DD4FF00002D7
:1041100005F1010504E003DA4FF00002A5F1010505
:10412000002AECD002981199C0E90231C0E900459B
:1041300079E70000000014400000F03F300000006C
:104140000000F0430000E03F2DE9FF4F95B09A4694
:10415000884606460025EEE1252877D1002427462B
:10416000F94A0121039400E0044316F8013F203B83
:1041700001FA03F01042F7D130782A2811D06FF0FD
:104180002F033078A0F13002092A16D8039A44F0A0
:10419000020402EB820203EB42021044761C0390FD
:1041A000EFE758F8042B0392002A03DA504244F454
:1041B0000054039044F00204761C30782E2816D167
:1041C00016F8010F44F004042A280DD06FF02F02D6
:1041D0003078A0F13003092B09D807EB870302EBF5
:1041E0004303C718761CF3E758F8047B761C307835
:1041F0006C280FD006DC4C2817D068280DD06A2810
:1042000014D104E0742810D07A280FD10DE044F4C2
:1042100000140AE044F4801401E044F4401472787D
:10422000824202D104F58014761C761C3078662810
:104230000BD013DC582877D009DC002875D045282E
:10424000F6D04628F4D047281AD193E118E0632825
:1042500035D0642879D0652812D18BE1702873D0CD
:1042600008DC6728F1D069286FD06E280DD06F2840
:1042700006D1ACE073282CD0752874D0782853D0A0
:104280005246179990476D1C54E1C4F3025002281E
:1042900009D003280DD0D8F8001004280DD00D60E7
:1042A00008F1040846E1D8F80010EA17C1E9005205
:1042B000F6E7D8F800100D80F2E70D70F0E718F877
:1042C000041B8DF8001000208DF80100EB46012042
:1042D00003E058F804BB4FF0FF3061074FF00001D6
:1042E00002D40DE009F101018946B9420FDA814596
:1042F000F8DB1BF809100029F4D108E009F10101ED
:1043000089468142FADB1BF809100029F6D103988F
:104310005346A0EB090721463846179A00F080FA69
:10432000284400EB090507E044E008E10DE01BF834
:10433000010B524617999047B9F10109F7D253463C
:1043400021463846179AF2E039E00A21C4F30252B6
:104350004FF0000B0091022A06D058F8040BC11749
:10436000032A09D00AE023E008F1070020F0070241
:10437000F2E80201904605E000B2C117042A01D11B
:1043800040B2C117002906DA0A460021404261EB1B
:1043900002012D2202E0220504D52B228DF80420F3
:1043A000012203E0E20701D02022F7E7914657E01F
:1043B0000A2100E010214FF0000B00910BE01021CA
:1043C0004FF0000B44F004040827009103E008209C
:1043D0004FF0000B0090C4F30252022A05D058F8A7
:1043E000040B0021032A08D008E008F1070020F0A0
:1043F0000702F2E80201904603E080B2042A00D1ED
:10440000C0B24FF0000922072AD53278702A07D0AF
:10441000DDF800C08CF0100C5CEA0B0C05D00EE04F
:1044200040228DF80420012208E050EA010306D062
:1044300030238DF804308DF8052002229146009B30
:1044400083F0080353EA0B030AD150EA010201D1B9
:10445000620705D530228DF804204FF001097F1E38
:104460003278582A04D039A20C920CAA02920BE09E
:104470003BA2F9E75B46009AFBF7A4FE0C9B9B5C12
:10448000029A521E0292137050EA0102F2D102986F
:1044900004A9081A00F1200B600702D524F4803427
:1044A00000E001275F4502DDA7EB0B0000E00020E4
:1044B00000EB0B01009003984944401A0390E0037D
:1044C00006D453462146179A039800F0A9F90544EB
:1044D000002706E001A85246C05D179990476D1C61
:1044E0007F1C4F45F6DBE0030CD553462146179A57
:1044F000039800F095F9054404E0302052461799DE
:1045000090476D1C0099481E00900029F5DC08E0DA
:104510000298029952460078491C029117999047D7
:104520006D1CBBF10001ABF1010BF1DC5BE100F0B4
:1045300065F90544761C307800287FF40DAE19B07B
:104540002846BDE8F08F00000928010030313233E1
:1045500034353637383961626364656600000000BF
:1045600030313233343536373839414243444546A9
:1045700000000000600700D4062708F1070020F0C3
:104580000700F0E80223804603F0004C5FEA0C00CD
:1045900001D097A009E0200501D596A005E0E0072D
:1045A00001D095A001E0AFF24C001390307823F0D9
:1045B000004365280CD006DC452809D046281DD0CC
:1045C00047287FD13BE0662818D067287AD136E0AB
:1045D0000021112F01DB112000E0781CCDE9000142
:1045E00004A90CA8FFF7EEFCDDE90D010C9A4FF0D1
:1045F000000B07F10109109200914EE04FF00040CE
:104600000097CDE9011004A90CA8FFF7DBFCDDE958
:104610000D020C9B0F994FF0000B914610930092E6
:1046200011B9791C00EB0109B7EB090003D4C0F103
:10463000FF3B07F10109A9EB0700019042E0012FC0
:1046400000DA01270021112F01DD112000E038469A
:10465000CDE9000104A90CA8FFF7B4FCDDE90D01C8
:104660000C9A00914FF0000BB946109221070FD41D
:10467000009A4A4503DA914601E0A9F10109B9F12E
:10468000010F05DD109AA9F10101515C3029F4D028
:10469000B84202DA10F1040F03DA0121CDE901106A
:1046A00010E0002803DC8344A9EB000102E0411C78
:1046B000494500DD8946A0EB0B00401C01904FF0FE
:1046C00000400290200705D40198484502DB4FF0D6
:1046D000FF30019000208DF84B0002980DF14B0740
:1046E000B0F1004F25D002200C902B200D900298A5
:1046F00000280CDA404202902D200D9007E00A219C
:104700000298FBF7B5FD3031029007F8011D0C99B6
:10471000481E0C900029F2DC02980028EFD1791E87
:104720000D980870307800F0200040F0450007F840
:10473000020D11A8C01BC01D02901398007800B193
:10474000012000EB0901019801EBE071029801449E
:104750000398401A401E0390E00306D453462146B6
:10476000179A039800F05CF805441398007818B184
:104770005246179990476D1CE00323D553462146B6
:10478000179A039800F04CF805441BE0BBF1000FAA
:1047900007DB0098584504DD1098179910F80B00B6
:1047A00001E0179930205246904701980BF1010B18
:1047B000401E05F10105019004D12E2052461799A3
:1047C00090476D1CB9F10001A9F10109DEDC05E09B
:1047D00017F8010B5246179990476D1C0299481E15
:1047E00002900029F4DC53462146179A03989EE66E
:1047F0002D0000002B000000200000002DE9F041FA
:10480000044600251E461746880404D405E03946B0
:104810002020B0476D1C641EF9D52846BDE8F08104
:104820002DE9F041044600251E469046C80301D5F7
:10483000302700E02027880404D505E041463846AB
:10484000B0476D1C641EF9D52846BDE8F081000014
:1048500013B54FF0FF33012269460248FEF7F0F826
:1048600000981CBD380300202DE9F0410025234E9F
:10487000234C012708B1377001E0307870B1042172
:104880002046FDF7F9F880B108212046FDF7F4F83D
:1048900058B110212046FDF7EFF830B10421204631
:1048A000FDF7EAF8012818D024E00A20FCF7DAFF27
:1048B0000020307004212046FDF7DEF800B9012504
:1048C00008212046FDF7D8F800B90225102120461E
:1048D000FDF7D2F870B903250CE008212046FDF75A
:1048E000CBF8012806D110212046FDF7C5F8012894
:1048F00000D137702846BDE8F08100003800002064
:10490000001002401CB5FDF7CFF8FEF71FFEFEF7C2
:1049100059FAFEF741FAFEF7A5FAFEF74FF9FEF74E
:10492000B3F9FEF7F5F9FEF735FBFEF707FBFEF7E7
:1049300051FB194F194EDFF868B04FF000094FF0E6
:1049400001084FF4806AF868FBF77FFC04460D46C7
:104950007869FBF77AFC41EC100B12A053EC102B9A
:10496000CDE90045FFF7B6F80020FFF77DFF0128ED
:104970000DD00228E7D186F8008086F80180012258
:1049800051465846C6F80490FDF77BF8DBE7022154
:10499000317086F80180F2E7540100200800002001
:1049A0000014024025662C2025660A0003480121D8
:1049B0000170002141704160704700000800002034
:1049C000000610160006101600000000000000008F
:1049D00001020304060708090000000001020304A5
:1049E000000000006E83F9A22915444ED15727FC20
:1049F000C0DD34F5999562DB4190433CAB6351FED9
:104A0000204A00080000002090000000983F0008A5
:104A1000B04A000890000020F0060000A83F0008FF
:104A20000000000000000000000000000000000086
:104A30000000000000000000000000000000000076
:104A40000000000000000000000000000000000066
:104A50000000000000000000010000000000000055
:104A60000000000075936040AAF1AE40295C8B40C5
:104A7000F2D26D3F93180C40A245B63D08AC804081
:104A80009A99BD40508D9B4039B4004081954B4070
:104A9000560E4D3F00000000010000001000000015
:104AA000000000000024F4000000000000000000EE
:040000050800018965
:00000001FF
